{
  "contractName": "OpenComplainNetwork",
  "abi": [
    {
      "inputs": [],
      "payable": false,
      "stateMutability": "nonpayable",
      "type": "constructor"
    },
    {
      "constant": false,
      "inputs": [
        {
          "name": "data",
          "type": "string"
        },
        {
          "name": "long",
          "type": "uint256"
        },
        {
          "name": "lat",
          "type": "uint256"
        },
        {
          "name": "cat",
          "type": "uint256"
        }
      ],
      "name": "registerComplain",
      "outputs": [
        {
          "name": "",
          "type": "uint256"
        }
      ],
      "payable": true,
      "stateMutability": "payable",
      "type": "function"
    },
    {
      "constant": true,
      "inputs": [
        {
          "name": "cid",
          "type": "uint256"
        }
      ],
      "name": "viewComplain",
      "outputs": [
        {
          "name": "",
          "type": "uint256"
        },
        {
          "name": "",
          "type": "uint256"
        },
        {
          "name": "",
          "type": "uint256"
        },
        {
          "name": "",
          "type": "uint256"
        },
        {
          "name": "",
          "type": "uint256"
        },
        {
          "name": "",
          "type": "string"
        },
        {
          "name": "",
          "type": "uint8"
        }
      ],
      "payable": false,
      "stateMutability": "view",
      "type": "function"
    },
    {
      "constant": false,
      "inputs": [
        {
          "name": "cid",
          "type": "uint256"
        },
        {
          "name": "sta",
          "type": "uint8"
        }
      ],
      "name": "changeStatus",
      "outputs": [],
      "payable": false,
      "stateMutability": "nonpayable",
      "type": "function"
    },
    {
      "constant": false,
      "inputs": [
        {
          "name": "cid",
          "type": "uint256"
        }
      ],
      "name": "resolve",
      "outputs": [],
      "payable": false,
      "stateMutability": "nonpayable",
      "type": "function"
    },
    {
      "constant": false,
      "inputs": [
        {
          "name": "cid",
          "type": "uint256"
        }
      ],
      "name": "declineProposal",
      "outputs": [],
      "payable": false,
      "stateMutability": "nonpayable",
      "type": "function"
    },
    {
      "constant": false,
      "inputs": [
        {
          "name": "accounts",
          "type": "address[]"
        }
      ],
      "name": "modifyPoliceAccounts",
      "outputs": [],
      "payable": false,
      "stateMutability": "nonpayable",
      "type": "function"
    },
    {
      "constant": false,
      "inputs": [
        {
          "name": "cid",
          "type": "uint256"
        }
      ],
      "name": "fundComplain",
      "outputs": [],
      "payable": true,
      "stateMutability": "payable",
      "type": "function"
    },
    {
      "constant": false,
      "inputs": [
        {
          "name": "cid",
          "type": "uint256"
        }
      ],
      "name": "claimSolution",
      "outputs": [],
      "payable": false,
      "stateMutability": "nonpayable",
      "type": "function"
    },
    {
      "constant": true,
      "inputs": [],
      "name": "checkFund",
      "outputs": [
        {
          "name": "",
          "type": "uint256"
        }
      ],
      "payable": false,
      "stateMutability": "view",
      "type": "function"
    },
    {
      "constant": true,
      "inputs": [
        {
          "name": "pid",
          "type": "address"
        }
      ],
      "name": "checkIfPoliceAccount",
      "outputs": [
        {
          "name": "",
          "type": "bool"
        }
      ],
      "payable": false,
      "stateMutability": "view",
      "type": "function"
    }
  ],
  "bytecode": "0x6060604052341561000f57600080fd5b33600360006101000a81548173ffffffffffffffffffffffffffffffffffffffff021916908373ffffffffffffffffffffffffffffffffffffffff160217905550600080819055506111c1806100666000396000f300606060405236156100a2576000357c0100000000000000000000000000000000000000000000000000000000900463ffffffff168063069b6df2146100a757806325a6c754146100d057806337465820146100e85780633c98539d146101bc5780634f896d4f146102165780637a492ebb146102395780639d3d24bc1461028a578063b62d2633146102ad578063c5a8a2ab1461032e578063cc48bf161461035d575b600080fd5b34156100b257600080fd5b6100ba610380565b6040518082815260200191505060405180910390f35b6100e6600480803590602001909190505061039f565b005b34156100f357600080fd5b6101096004808035906020019091905050610505565b604051808881526020018781526020018681526020018581526020018481526020018060200183600381111561013b57fe5b60ff168152602001828103825284818151815260200191508051906020019080838360005b8381101561017b578082015181840152602081019050610160565b50505050905090810190601f1680156101a85780820380516001836020036101000a031916815260200191505b509850505050505050505060405180910390f35b34156101c757600080fd5b610214600480803590602001908201803590602001908080602002602001604051908101604052809392919081815260200183836020028082843782019150505050505091905050610663565b005b341561022157600080fd5b610237600480803590602001909190505061074f565b005b341561024457600080fd5b610270600480803573ffffffffffffffffffffffffffffffffffffffff16906020019091905050610805565b604051808215151515815260200191505060405180910390f35b341561029557600080fd5b6102ab600480803590602001909190505061085b565b005b610318600480803590602001908201803590602001908080601f01602080910402602001604051908101604052809392919081815260200183838082843782019150505050505091908035906020019091908035906020019091908035906020019091905050610974565b6040518082815260200191505060405180910390f35b341561033957600080fd5b61035b600480803590602001909190803560ff16906020019091905050610b82565b005b341561036857600080fd5b61037e6004808035906020019091905050610cd6565b005b60003073ffffffffffffffffffffffffffffffffffffffff1631905090565b600160038111156103ac57fe5b6001600083815260200190815260200160002060040160149054906101000a900460ff1660038111156103db57fe5b148061041f57506003808111156103ee57fe5b6001600083815260200190815260200160002060040160149054906101000a900460ff16600381111561041d57fe5b145b151561042a57600080fd5b3460016000838152602001908152602001600020600501600082825401925050819055506001600082815260200190815260200160002060070180548060010182816104769190611084565b9160005260206000209001600033909190916101000a81548173ffffffffffffffffffffffffffffffffffffffff021916908373ffffffffffffffffffffffffffffffffffffffff160217905550506001600082815260200190815260200160002060080180548060010182816104ed91906110b0565b91600052602060002090016000349091909150555050565b60008060008060006105156110dc565b600087600160008a815260200190815260200160002060050154600160008b815260200190815260200160002060010154600160008c815260200190815260200160002060000154600160008d815260200190815260200160002060020154600160008e8152602001908152602001600020600301600160008f815260200190815260200160002060040160149054906101000a900460ff16818054600181600116156101000203166002900480601f0160208091040260200160405190810160405280929190818152602001828054600181600116156101000203166002900480156106435780601f1061061857610100808354040283529160200191610643565b820191906000526020600020905b81548152906001019060200180831161062657829003601f168201915b505050505091509650965096509650965096509650919395979092949650565b6000600360009054906101000a900473ffffffffffffffffffffffffffffffffffffffff1673ffffffffffffffffffffffffffffffffffffffff163373ffffffffffffffffffffffffffffffffffffffff161415156106c157600080fd5b600090505b815181101561074b5760016002600084848151811015156106e357fe5b9060200190602002015173ffffffffffffffffffffffffffffffffffffffff1673ffffffffffffffffffffffffffffffffffffffff16815260200190815260200160002060006101000a81548160ff02191690831515021790555080806001019150506106c6565b5050565b806001600082815260200190815260200160002060040160009054906101000a900473ffffffffffffffffffffffffffffffffffffffff1673ffffffffffffffffffffffffffffffffffffffff163373ffffffffffffffffffffffffffffffffffffffff161415156107c057600080fd5b60026001600084815260200190815260200160002060040160146101000a81548160ff021916908360038111156107f357fe5b021790555061080182610e1c565b5050565b6000600260008373ffffffffffffffffffffffffffffffffffffffff1673ffffffffffffffffffffffffffffffffffffffff16815260200190815260200160002060009054906101000a900460ff169050919050565b6001600381111561086857fe5b6001600083815260200190815260200160002060040160149054906101000a900460ff16600381111561089757fe5b14806108dc5750600060038111156108ab57fe5b6001600083815260200190815260200160002060040160149054906101000a900460ff1660038111156108da57fe5b145b15156108e757600080fd5b60036001600083815260200190815260200160002060040160146101000a81548160ff0219169083600381111561091a57fe5b0217905550336004600083815260200190815260200160002060006101000a81548173ffffffffffffffffffffffffffffffffffffffff021916908373ffffffffffffffffffffffffffffffffffffffff16021790555050565b600083600160008054815260200190815260200160002060010181905550826001600080548152602001908152602001600020600001819055508160016000805481526020019081526020016000206002018190555084600160008054815260200190815260200160002060030190805190602001906109f59291906110f0565b5033600160008054815260200190815260200160002060040160006101000a81548173ffffffffffffffffffffffffffffffffffffffff021916908373ffffffffffffffffffffffffffffffffffffffff1602179055506000600160008054815260200190815260200160002060040160146101000a81548160ff02191690836003811115610a8057fe5b0217905550346001600080548152602001908152602001600020600501819055506000341115610b615760016000805481526020019081526020016000206007018054806001018281610ad39190611084565b9160005260206000209001600033909190916101000a81548173ffffffffffffffffffffffffffffffffffffffff021916908373ffffffffffffffffffffffffffffffffffffffff1602179055505060016000805481526020019081526020016000206008018054806001018281610b4b91906110b0565b9160005260206000209001600034909190915055505b60008081548092919060010191905055506001600054039050949350505050565b60011515600260003373ffffffffffffffffffffffffffffffffffffffff1673ffffffffffffffffffffffffffffffffffffffff16815260200190815260200160002060009054906101000a900460ff161515141515610be157600080fd5b60026003811115610bee57fe5b816003811115610bfa57fe5b111580610c1e575060006003811115610c0f57fe5b816003811115610c1b57fe5b10155b1515610c2957600080fd5b806001600084815260200190815260200160002060040160146101000a81548160ff02191690836003811115610c5b57fe5b021790555060026003811115610c6d57fe5b816003811115610c7957fe5b1415610cd257336004600084815260200190815260200160002060006101000a81548173ffffffffffffffffffffffffffffffffffffffff021916908373ffffffffffffffffffffffffffffffffffffffff1602179055505b5050565b806001600082815260200190815260200160002060040160009054906101000a900473ffffffffffffffffffffffffffffffffffffffff1673ffffffffffffffffffffffffffffffffffffffff163373ffffffffffffffffffffffffffffffffffffffff16141515610d4757600080fd5b600380811115610d5357fe5b6001600084815260200190815260200160002060040160149054906101000a900460ff166003811115610d8257fe5b141515610d8e57600080fd5b600180600084815260200190815260200160002060040160146101000a81548160ff02191690836003811115610dc057fe5b021790555060006004600084815260200190815260200160002060006101000a81548173ffffffffffffffffffffffffffffffffffffffff021916908373ffffffffffffffffffffffffffffffffffffffff1602179055505050565b600080600160008481526020019081526020016000206005015411156110805760011515600260006004600086815260200190815260200160002060009054906101000a900473ffffffffffffffffffffffffffffffffffffffff1673ffffffffffffffffffffffffffffffffffffffff1673ffffffffffffffffffffffffffffffffffffffff16815260200190815260200160002060009054906101000a900460ff161515141515610f73576004600083815260200190815260200160002060009054906101000a900473ffffffffffffffffffffffffffffffffffffffff1673ffffffffffffffffffffffffffffffffffffffff166108fc60016000858152602001908152602001600020600501549081150290604051600060405180830381858888f193505050501515610f5257600080fd5b6000600160008481526020019081526020016000206005018190555061107f565b600090505b6001600083815260200190815260200160002060070180549050811015611062576001600083815260200190815260200160002060070181815481101515610fbc57fe5b906000526020600020900160009054906101000a900473ffffffffffffffffffffffffffffffffffffffff1673ffffffffffffffffffffffffffffffffffffffff166108fc600160008581526020019081526020016000206008018381548110151561102457fe5b9060005260206000209001549081150290604051600060405180830381858888f19350505050151561105557600080fd5b8080600101915050610f78565b600060016000848152602001908152602001600020600501819055505b5b5050565b8154818355818115116110ab578183600052602060002091820191016110aa9190611170565b5b505050565b8154818355818115116110d7578183600052602060002091820191016110d69190611170565b5b505050565b602060405190810160405280600081525090565b828054600181600116156101000203166002900490600052602060002090601f016020900481019282601f1061113157805160ff191683800117855561115f565b8280016001018555821561115f579182015b8281111561115e578251825591602001919060010190611143565b5b50905061116c9190611170565b5090565b61119291905b8082111561118e576000816000905550600101611176565b5090565b905600a165627a7a72305820552a63a5a8a032f371020bce6d3ef799a3f86930afc93d0bde81b62ed05078ce0029",
  "source": "pragma solidity ^0.4.17;\n\ncontract OpenComplainNetwork {\n    enum Status { Pending, Accepted, Resolved, Proposed }\n    \n    struct Complain {\n        /*bytes[50] _name;\n        bytes[50] _address;\n        bytes[50] _desc;\n        bytes[50] _location;\n        bytes[50] _category;*/\n        uint _lat;\n        uint _long;\n        uint _category;\n        string _data;\n        address _personID;\n        Status _status;\n        uint _reward;\n        address _policeAssigned;\n        address[] _contributors;\n        uint[] _contAmount;\n    }\n    \n    uint private complainCounter;\n    mapping(uint => Complain) private complainMap;\n    mapping(address => bool) private policeAccounts;\n    address private superuser;\n    mapping(uint => address) private complainSolver;\n    \n    function OpenComplainNetwork() public {\n        superuser = msg.sender;\n        complainCounter = 0;\n    }\n    \n    modifier superuserAccess() {\n        require(msg.sender == superuser);\n        _;\n    }\n    \n    modifier policeAccess {\n        require(policeAccounts[msg.sender] == true);\n        _;\n    }\n    \n    modifier complainOwnerAccess(uint cid) {\n        require(msg.sender == complainMap[cid]._personID);\n        _;\n    }\n    \n    modifier complainOwnOrPoliceAccess(uint cid) {\n        require(policeAccounts[msg.sender] == true || msg.sender == complainMap[cid]._personID);\n        _;\n    }\n    \n    function registerComplain(string data, uint long, uint lat, uint cat) public payable returns(uint) {\n        complainMap[complainCounter]._long = long;\n        complainMap[complainCounter]._lat = lat;\n        complainMap[complainCounter]._category = cat;\n        complainMap[complainCounter]._data = data;\n        complainMap[complainCounter]._personID = msg.sender;\n        complainMap[complainCounter]._status = Status.Pending;\n        complainMap[complainCounter]._reward = msg.value;\n\n        if(msg.value > 0) {\n            complainMap[complainCounter]._contributors.push(msg.sender);\n            complainMap[complainCounter]._contAmount.push(msg.value);\n        }\n        /*for(uint i=0; i<data.length; i++) {\n            complainMap[complainCounter]._data[i] = data[i];\n        }*/\n        complainCounter++;\n        \n        return complainCounter-1;\n    }\n\n    function viewComplain(uint cid) public constant returns (uint, uint, uint, uint, uint, string, Status) {\n        return (cid, complainMap[cid]._reward, complainMap[cid]._long, complainMap[cid]._lat, complainMap[cid]._category, complainMap[cid]._data, complainMap[cid]._status);\n    }\n    \n    function changeStatus(uint cid, Status sta) public policeAccess {\n        require((sta <= Status.Resolved) || (sta >= Status.Pending));\n        complainMap[cid]._status = sta;\n        \n        // What if a person solves the problem and then the police \n        // updates the status to resolved. complainSolver[cid] = 'Police'\n        // no funds to the Original Solver. \n        if(sta == Status.Resolved) {\n            complainSolver[cid] = msg.sender;\n        }\n    }\n    \n    // Even though Police can resolve and close the complain.\n    // Complainee would be responsible for transfering the funds, if any.\n    function resolve(uint cid) public complainOwnerAccess(cid) {\n        complainMap[cid]._status = Status.Resolved;\n        \n        transferFundOnResolve(cid);\n    }\n    \n    function declineProposal(uint cid) public complainOwnerAccess(cid) {\n        require( complainMap[cid]._status == Status.Proposed );\n        complainMap[cid]._status = Status.Accepted;\n        \n        complainSolver[cid] = 0;\n    }\n    \n    // If someone other than police solved the complain transfer funds to solver.\n    // Otherwise send them back to the contributors.\n    function transferFundOnResolve(uint cid) private {\n        // Could also be used: complainMap[cid]._status == Status.Resolved && \n        if(complainMap[cid]._reward > 0) {\n            if(policeAccounts[complainSolver[cid]] != true) {\n                complainSolver[cid].transfer( complainMap[cid]._reward );\n                complainMap[cid]._reward = 0;\n            }\n            else {\n                for(uint i=0; i<complainMap[cid]._contributors.length; i++) {\n                    complainMap[cid]._contributors[i].transfer( complainMap[cid]._contAmount[i] );\n                }\n                complainMap[cid]._reward = 0;\n                \n            }\n        }\n    }\n    \n    function modifyPoliceAccounts(address[] accounts) public superuserAccess {\n        for(uint i=0; i<accounts.length; i++) {\n            policeAccounts[accounts[i]] = true;\n        }\n    }\n    \n    function fundComplain(uint cid) public payable {\n        require((complainMap[cid]._status == Status.Accepted) || (complainMap[cid]._status == Status.Proposed));\n        complainMap[cid]._reward += msg.value;\n        complainMap[cid]._contributors.push(msg.sender);\n        complainMap[cid]._contAmount.push(msg.value);\n    }\n    \n    function claimSolution(uint cid) public {\n        // Police should accept the complain first.\n        require(complainMap[cid]._status == Status.Accepted || complainMap[cid]._status == Status.Pending);\n        complainMap[cid]._status = Status.Proposed;\n        complainSolver[cid] = msg.sender;\n    }\n    \n    function checkFund() public constant returns(uint) {\n        return this.balance;\n    }\n    \n    function checkIfPoliceAccount(address pid) public constant returns(bool) {\n        return policeAccounts[pid];\n    }\n    \n    \n\n}",
  "sourcePath": "C:\\Users\\SAKSHI\\Desktop\\OpenComplaintNetwork-master\\src\\truffle-contract\\contracts\\OpenComplainNetwork.sol",
  "compiler": {
    "name": "solc",
    "version": "0.4.17+commit.bdeb9e52.Emscripten.clang"
  },
  "schemaVersion": "3.4.14",
  "updatedAt": "2023-08-02T17:27:00.078Z",
  "networkType": "ethereum",
  "devdoc": {
    "methods": {}
  },
  "userdoc": {
    "methods": {}
  }
}